:020000040800F2
:10000000483F0020F5230008FD0C0008FF0C000805
:10001000030D0008070D00080B0D0008000000008C
:100020000000000000000000000000000F0D0008AC
:10003000110D000800000000130D0008150D000848
:100040000F2400080F2400080F2400080F240008C4
:100050000F2400080F2400080F2400080F240008B4
:100060000F2400080F2400080F2400080F240008A4
:100070000F2400080F2400080F2400080F24000894
:100080000F2400080F2400080F2400080F24000884
:100090000F2400080F2400080F240008DD1E0008AC
:1000A0000F2400080F2400080F2400080F24000864
:1000B0000F2400080F2400080F2400080F24000854
:1000C0000F2400080F2400080F2400080F24000844
:1000D0000F240008170D00080F2400080F24000843
:1000E0000F2400080F2400080F2400080F24000824
:1000F0000F2400080F2400080F2400080F24000814
:100100000F2400080F2400080F2400080F24000803
:100110000F2400080F2400080F2400080F240008F3
:100120000F2400080F2400080F2400080F240008E3
:100130000F2400080F2400080F2400080F240008D3
:100140000F2400080F2400080F2400080F240008C3
:100150000F2400080F2400080F2400080F240008B3
:100160000F2400080F2400080F2400080F240008A3
:100170000F2400080F2400080F2400080F24000893
:100180000F24000800F002F800F067F80AA090E8D9
:10019000000C82448344AAF10107DA4501D100F042
:1001A0005CF8AFF2090EBAE80F0013F0010F18BFA8
:1001B000FB1A43F0010318470063000020630000AE
:1001C0000A444FF0000C10F8013B13F0070408BF7D
:1001D00010F8014B1D1108BF10F8015B641E05D01B
:1001E00010F8016B641E01F8016BF9D113F0080FD0
:1001F0001EBF10F8014BAD1C0C1B09D16D1E58BF62
:1002000001F801CBFAD505E014F8016B01F8016B98
:100210006D1EF9D59142D6D370470000002300240B
:1002200000250026103A28BF78C1FBD8520728BF06
:1002300030C148BF0B607047642904F0BB8263295A
:1002400004F07783732904F07C83002070471FB586
:1002500004F0D0FC1FBD10B510BD04F095FB114695
:10026000FFF7F5FF00F00CFA04F0B3FB03B4FFF75F
:10027000F2FF03BC01F067F81CB5044601F016FA62
:10028000012300930193102322460021084601F028
:1002900024FB1CBD70B505460C4601F007FA22464A
:1002A0000121284601F0D7F970BD10B588B0044689
:1002B0002246FFA1684604F00BFA6846FFF7DCFF10
:1002C00008B010BD70B54FF48072FA49012000F0FB
:1002D00011FE00241AE0002510E04FF48071F5486B
:1002E00002F028FA012000F0F0FD4FF48071F1488F
:1002F00002F022FA012000F0E8FD6D1CB5F57A7FCE
:10030000EBDB4FF47A7000F0E0FD641C052CE2DBBF
:1003100070BD10B500230422E649012000F055FE0F
:1003200010BD10B501230422E249184600F04DFE2D
:1003300010BD1CB504460123009301930C23DEA2DB
:100340001421002001F0C9FA102C49D2DFE804F092
:10035000483E25390C43112A16084848201B342FE3
:10036000002001F0D5FE3CE04FF4FA7001F0D0FE21
:1003700037E04FF47A7001F0CBFE32E040F2DC500F
:1003800001F0C6FE2DE04FF4FA6001F0C1FE28E056
:1003900040F6C41001F0BCFE23E040F6B83001F096
:1003A000B7FE1EE040F6AC5001F0B2FE19E04FF48B
:1003B0007A6001F0ADFE14E041F2941001F0A8FE65
:1003C0000FE041F2883001F0A3FE0AE041F27C50D8
:1003D00001F09EFE05E041F2707001F099FE00E030
:1003E00000BF00BF0123009301930C23B6A2142188
:1003F000002001F072FA1CBD1CB5044601230093D5
:1004000001930C23B4A21421002001F066FA102CF1
:1004100049D2DFE804F0483E25390C43112A16087A
:100420004848201B342F002001F0CCFE3CE04FF464
:10043000FA7001F0C7FE37E04FF47A7001F0C2FEA7
:1004400032E040F2DC5001F0BDFE2DE04FF4FA60E6
:1004500001F0B8FE28E040F6C41001F0B3FE23E03E
:1004600040F6B83001F0AEFE1EE040F6AC5001F0B0
:10047000A9FE19E04FF47A6001F0A4FE14E041F205
:10048000941001F09FFE0FE041F2883001F09AFED7
:100490000AE041F27C5001F095FE05E041F27070F7
:1004A00001F090FE00E000BF00BF01230093019324
:1004B0000C238DA21421002001F00FFA1CBD8AB07C
:1004C0004FF0FF34A04600274FF0000900254FF001
:1004D000000A01F070FFD2E001F00CFEE8B101F07B
:1004E000D0FD06460123009301930C2302461421FC
:1004F000002001F0F2F901F0D9FD064602467EA186
:1005000002A804F0E5F8012300930193102302AA46
:100510000021084601F0E1F900BF00F0C7FD0446E4
:10052000601C71D044456FD03E467F1C06EBD671EF
:100530004910A6EB410000F01FFD0A2C08D17348BA
:10054000007828B14FF0010971A0FFF795FE91E006
:10055000B9F1000F0CD00E2C05D14FF000096FA09F
:10056000FFF78AFE86E0012C01D1FFF7D2FE81E081
:10057000B5B30E2C04D1002568A0FFF77DFE7AE00C
:10058000012D0DD1042C01D04FF0000A012300935E
:1005900001930C2363A21421002001F09EF945E091
:1005A000022D0DD1032C01D04FF0000A012300933E
:1005B00001930C235FA21421002001F08EF935E095
:1005C000032D0ED1092C01D04FF0000A0123009316
:1005D00001930C235BA21421002001F07EF925E099
:1005E00027E00025BAF1000F0FD00F2C0DD101200C
:1005F00001F06AFD012300930193102355A200210D
:10060000084601F06AF910E039E0012300930193F4
:100610000C2355A21421002001F05FF940F6B830F8
:1006200000F053FC3DA0FFF727FE24E0681CC5B294
:1006300020E001F05FFD98B174B9002001F044FDA5
:1006400001F05BFD01230093019310234AA20021D6
:10065000084601F042F90DE02046FFF76AFE09E086
:100660002CB90125AA4649A0FFF706FE02E0204664
:10067000FFF7C2FE00BF4FF4967000F026FC2BE798
:1006800000F0FAFD00F0C4FB00F04EFC00F0E9FEC3
:1006900000F002FD42A245A147A004F00DF84CA0D5
:1006A000FFF7EAFD0020194908700024A3E00000CC
:1006B0002564000000000240736176652020202040
:1006C000202020202020200073617665202020201B
:1006D000206F6B212020200073656E64696E672E89
:1006E0002E2E20202020200073656E6420206F6B4A
:1006F0002020202020202000524543562020256421
:1007000020202020202020202000000000000020A9
:10071000506F776572204F46463F000072656164F6
:10072000790000002A2020202020202020202020C6
:10073000202020002A2A20202020202020202020C5
:10074000202020002A2A2A202020202020202020AB
:100750002020200052454356202020202020202009
:100760002020202000000000707764206572722134
:10077000202020202020200053454E4420202020EF
:10078000202020202020202000000000696E7075AD
:100790007420636C6F6E65207077643A000000000F
:1007A00032323A35313A3539000000004F63742057
:1007B00032302032303139002068656C6C6F776FD1
:1007C000726C64202573202025730D0A0000000040
:1007D000495272656D6F74652100000000F066FC7F
:1007E0000A2807D10120FF490870FFF79AFDFEA0F3
:1007F00003F062FF641C642CF0DBFA48007810B14F
:10080000FFF78FFD01E0FFF784FDFFF758FE00BF03
:100810000100A0F10100FBD170472DE9FC4700F079
:1008200045FF002406E0E0B200F0C5FE642000F0C1
:100830004CFB641C3F2CF6DD002000F0BCFE4FF4A6
:10084000FA6000F042FB00F031FF0021084600F0A2
:1008500085FE0121E12000F0DFFD0021032000F0F2
:100860007DFE0121C12000F0D7FD012408E0E1B2A6
:10087000022000F073FE0121E12000F0CDFD641C98
:100880007E2CF4DD40F6B83000F01FFBFF2000F0B6
:10089000F6FE00F011FF002427E001230022CDE93D
:1008A0000023182304F12000C2B20021084600F002
:1008B0006BFF01230022CDE90023102304F1200067
:1008C000C2B200210C2000F05FFF01230022CDE91D
:1008D00000230C2304F12000C2B20021142000F0F8
:1008E00053FF642000F0F1FA641C5F2CD5DB40F666
:1008F000B83000F0EAFAFF2000F0C1FE00F0DCFEA4
:1009000000250026012414E001230022CDE9002364
:10091000182304F12000C2B2F1B2E8B200F034FFB3
:100920000C35742D01DD00251836082E00DD02E09F
:10093000641C5F2CE8DB00BF41F2883000F0C5FA90
:10094000FF2000F09CFE00F0B7FE002500260124E9
:1009500014E001230022CDE90023102304F120003C
:10096000C2B2F1B2E8B200F00FFF0835782D01DD18
:1009700000251036102E00DD02E0641C5F2CE8DB41
:1009800000BF41F2883000F0A0FA002000F077FEAE
:1009900000F092FE00250026012418E001230093B8
:1009A00001930C2304F12000C2B2F1B2E8B200F0CE
:1009B000EBFEAD1D7A2D01DD00250B36162E05DD73
:1009C00041F2883000F081FA00250026641C5F2C7B
:1009D000E4DB00240CE000F069FE0123E2B2102108
:1009E0003220009301F090F8642000F06EFA641C4D
:1009F000102CF0DB4FF4FA6000F067FA00250026B7
:100A0000FF2000F03CFE00F057FE01260EE001251D
:100A100009E001230022F1B2E8B200F066FE0520F1
:100A200000F053FA6D1C7E2DF3DD761C1E2EEEDDDC
:100A300000F03CFE012300227E211846009300F0C6
:100A400078FF4FF47A7000F040FA01237F221E21D4
:100A50001846009300F08FFF4FF47A7000F035FADB
:100A600001231F227E211846009300F062FF4FF4FD
:100A70007A7000F02AFA012300221E211846009302
:100A800000F079FF0123009301931F237F220021AF
:100A9000084600F092FF40F6B83000F016FA002643
:100AA00000274FF005094FF0030A4FF00A0800F045
:100AB000FDFD002530E005EBD5714910B5EB410196
:100AC00013D00123009301930A231A4600210846FC
:100AD00000F0E6FF01230022CDE900230A231422BF
:100AE0000021184600F0DCFF12E001230022CDE9CE
:100AF00000230A231A460021084600F0D1FF0123F3
:100B0000009301930A2314220021184600F0C8FF25
:100B1000642000F0DAF96D1C322DCCDB38E006EBF6
:100B20000905C8F18000A84201DB002D01DAC9F1F6
:100B3000000907EB0A05C8F12000A84201DB002DDF
:100B400001DACAF1000A0123002207EB0800CDE90F
:100B50000023C3B206EB0800C2B2F9B2F0B200F053
:100B60009FFF4E4457440123009307EB0800019375
:100B7000C3B206EB0800C2B2F9B2F0B200F090FFC7
:100B8000C82000F0A2F900F091FA401C00D000E06B
:100B9000C5E700BFBDE8FC871CB54FF6FF700090AD
:100BA00001208DF8040000208DF8060002208DF849
:100BB000050001208DF807000121084601F085FF9E
:100BC0000121022001F081FF0121042001F07DFFBD
:100BD0000121082001F079FF6946064801F036FD41
:100BE000694609E000000020706F776572206F6E23
:100BF0000D0A000000000240394801F027FD694657
:100C0000384801F023FD6946374801F01FFD29E00F
:100C1000364840694FF6FF714840344948613448CE
:100C200000684FF6FF7180EA01003049C1F81404F2
:100C3000304800684FF6FF7180EA01002B49C1F887
:100C400014082D4800684FF6FF7180EA010027491B
:100C5000C1F8140C4FF0000400E0641C6FF07F40FA
:100C60008442FADBD4E710B50446102C36D2DFE814
:100C700004F00F0C2A1116091A2E1E12083526220E
:100C800010322BE0FFF745FB28E0FFF71BFB25E0C8
:100C900024E023E022E0002000F062F91EE00120C1
:100CA00000F05EF91AE0002000F066F916E001207D
:100CB00000F062F912E0002000F06AF90EE0012075
:100CC00000F066F90AE0002000F06EF906E001206D
:100CD00000F06AF902E0FFF7A0FD00BF00BF10BD01
:100CE0000004024000080240000C024000000240E4
:100CF0001404024014080240140C0240704700BF64
:100D0000FEE700BFFEE700BFFEE700BFFEE770475B
:100D100070477047704710B540F22551064802F001
:100D200019FA38B1044802F050F90446014603A00C
:100D300003F0C2FC10BD0000001001400A0D555325
:100D4000415254312048797065727465726D696ED4
:100D5000616C20496E74657272757074732052658F
:100D60006365697665206120776F72643A20256338
:100D70000A0D00004FF0E02148617047012808D1BA
:100D80004FF0E021096941F001014FF0E0221161CB
:100D90000EE0811C08D14FF0E021096921F001012A
:100DA0004FF0E022116103E000214FF0E022916159
:100DB000704740B14FF0E021096941F002014FF066
:100DC000E022116107E04FF0E021096921F0020102
:100DD0004FF0E022116170474FF0E02080697047CA
:100DE00010B50146002200230020CB10022B03D1B6
:100DF0004FF0E024226902E04FF0E024E269012490
:100E00008C40144201D0012000E0002010BD000001
:100E10001FB5684601F0C6FD6FF0040002F03EFA0F
:100E20000020FFF7C6FF2F490198B0FBF1F02E49D3
:100E300008704FF4FA510198B0FBF1F02B4908808B
:100E40001FBD10B504462849097801FB04F0FFF7DF
:100E500091FF0020FFF792FF0120FFF78FFF00BFF7
:100E60001020FFF7BDFF22490870084600780128CE
:100E7000F6D1C01EFFF782FF0020FFF77FFF10BDF5
:100E800070B504461948008800FB04F5B5F1807F71
:100E900001D36FF07F452846FFF76CFF0020FFF776
:100EA0006DFF0120FFF76AFF00BF1020FFF798FFDA
:100EB0000F490870084600780128F6D1C01EFFF7D8
:100EC0005DFF0020FFF75AFF70BD70B50446002596
:100ED00004E04FF47A70FFF7B4FF6D1CA542F8DB15
:100EE00070BD000000127A00020000200400002003
:100EF000060000207CB506460C461546012130460A
:100F000001F0E3FD009501208DF8040000208DF82C
:100F1000060001208DF8070002208DF805006946C3
:100F2000204601F093FB7CBD10B58022584901207A
:100F3000FFF7E0FF402256490120FFF7DBFF2022A8
:100F400053490120FFF7D6FF4FF4004251490420D6
:100F5000FFF7D0FF10BD0AB1018300E04183704765
:100F600010B504460CB9012000E0002002464021E3
:100F70004748FFF7F0FF10BD10B504460CB901203B
:100F800000E00020024680214148FFF7E4FF10BD49
:100F900010B504460CB9012000E0002002462021D3
:100FA0003B48FFF7D8FF10BD10B504460CB901202F
:100FB00000E0002002464FF400413648FFF7CBFF27
:100FC00010BD42694A40426170472DE9F041074631
:100FD0000C4615461E462A4621463846FFF78AFF2C
:100FE000324629462046FFF7B6FFBDE8F0817CB5C2
:100FF00005460C46009401208DF8040000208DF871
:10100000060002208DF8050001208DF807006946D2
:10101000284601F01BFB7CBD7CB505460C460094C0
:1010200001208DF804008DF8060002208DF80500DF
:1010300001208DF807006946284601F007FB7CBDBA
:101040007CB505460C46009400208DF804008DF810
:10105000060002208DF8050001208DF80700694682
:10106000284601F0F3FA7CBD7CB505460C46009499
:1010700000208DF804008DF8060002208DF8050090
:1010800001208DF807006946284601F0DFFA7CBD93
:10109000000002400008024010B501210F2001F0BD
:1010A00014FD0121880301F054FD10BD2DE9FC4120
:1010B0000120009000208DF8040002208DF8070028
:1010C0008DF805006946684801F0C0FA01216648BC
:1010D00001F016FB50B10A20FFF7F7FE012162482C
:1010E00001F00EFB10B10A20BDE8FC813820009011
:1010F00001208DF8040000208DF8060002208DF8F4
:1011000005006946594801F0A1FA0420009069469B
:10111000574801F09BFA3821544801F00DFB042197
:10112000534801F009FB4FF4E050009000208DF887
:10113000040001208DF8070002208DF805006946A3
:101140004C4801F083FA4FF400400090694646484D
:1011500001F07CFA4FF48051464801F0D1FA06467E
:101160004FF40061434801F0CBFA07464FF40041C9
:101170003D4801F0C5FA80464FF480613D4801F0DA
:10118000BFFA0546F01940442844042869D00EB936
:1011900000240CE00FB9042409E0B8F1000F01D1DC
:1011A000082404E00DB90C2401E04FF0FF3438208E
:1011B000009000208DF8040001208DF80700022027
:1011C0008DF805006946294801F040FA0420009096
:1011D0006946274801F03AFA4FF4E05000900120A8
:1011E0008DF8040000208DF8060002208DF805001F
:1011F0006946204801F02AFA4FF400400090694601
:10120000194801F023FA4FF4E0511A4801F094FA1A
:101210004FF40041144801F08FFA0421144801F002
:101220006FFA06460821114801F06AFA07462021A4
:101230000E4801F065FA804610210C4801F060FA72
:10124000054666B10FB9641C09E0B8F1000F01D181
:10125000A41C04E00DB9E41C01E04FF0FF3420466B
:1012600042E74FF0FF303FE7000002400004024039
:10127000000C02400008024000B587B0012108467A
:1012800001F023FC0121084601F01FFC0121102080
:1012900001F05FFC07220921344801F05AFA0722C5
:1012A0000A21324801F055FA4FF4007005900220EF
:1012B0008DF8180000208DF81A0002208DF8190012
:1012C00001208DF81B0005A9284801F0BFF94FF453
:1012D0008060059001208DF81A0000208DF81B0019
:1012E00005A9224801F0B2F94FF4E1300190002045
:1012F000ADF80800ADF80A00ADF80C00ADF810002C
:101300000C20ADF80E0001A9194801F0A7FD01223B
:1013100040F22551164801F0E2FE0121144801F087
:1013200025FE07B000BD08B525208DF8000000207F
:101330008DF801008DF8020001208DF80300684649
:1013400001F053FF08BD014600BF704770B5044669
:101350000D46E1B2064801F034FE00BF40210448CA
:1013600001F0E2FE0028F9D0204670BD00000240E6
:101370000010014070B505460DB1012000E00020CD
:10138000C4B222464021FD4801F0D8F970BD70B5C5
:1013900005460DB1012000E00020C4B222468021A4
:1013A000F64801F0CBF970BD70B505460DB10120CE
:1013B00000E00020C4B222464FF48071EF4801F0F3
:1013C000BDF970BD70B505460DB1012000E00020EB
:1013D000C4B222464FF40071E84801F0AFF970BD85
:1013E00070B505460DB1012000E00020C4B22246D0
:1013F0004FF48041E24801F0A1F970BD70B5054697
:101400000DB1012000E00020C4B222464FF400419B
:10141000DB4801F093F970BD70B504460D4600201D
:10142000FFF7A8FF2846FFF7B2FF002613E00020D1
:10143000FFF7BAFF14F0800F03D00120FFF7C2FFBF
:1014400002E00020FFF7BEFF0120FFF7ADFF6006BE
:10145000040E701CC6B2082EE9DB0120FFF78AFFDC
:1014600070BD10B50121062001F02FFB4FF4707103
:10147000C248FFF7BCFD4FF47071C04801F05AF943
:101480004FF44041BE48FFF7B2FD4FF44041BC4825
:1014900001F050F90120FFF76DFF0120FFF777FF02
:1014A0000120FFF781FF0120FFF78CFF0020FFF7ED
:1014B000A5FF0020FFF794FF3220FFF706FD012073
:1014C000FFF78EFF3220FFF700FD0021E220FFF73B
:1014D000A3FF0520FFF7F9FC00212C20FFF79CFF5C
:1014E0000520FFF7F2FC00212E20FFF795FF0520D5
:1014F000FFF7EBFC00212F20FFF78EFF0520FFF701
:10150000E4FC00212420FFF787FF00218120FFF762
:1015100083FF00212420FFF77FFF0021A220FFF797
:101520007BFF0021A120FFF777FF0021CF20FFF7ED
:1015300073FF00214020FFF76FFF0021AF20FFF76E
:101540006BFF10BD10B50021AF20FFF765FF10BD88
:1015500010B50021AE20FFF75FFF10BD70B5054646
:101560000C4605F1B001C8B20021FFF755FF201D60
:10157000C4B2210901F110000021FFF74DFF04F072
:101580000F000021FFF748FF70BD70B500240FE089
:1015900000212046FFF7E2FF002505E001210020A1
:1015A000FFF73AFF681CC5B2802DF7DB601CC4B2A0
:1015B000042CEDDB70BD10B5044604F14001C8B247
:1015C0000021FFF729FF10BD10B5044624B100210A
:1015D000A720FFF721FF03E00021A620FFF71CFF53
:1015E00010BD10B5044624B10021A520FFF714FF5B
:1015F00003E00021A420FFF70FFF10BD2DE9F0410B
:1016000006460D461746032D01DDBDE8F081C5F104
:101610000300C5B239462846FFF7A0FF002405E0C5
:10162000305D0121FFF7F8FE601CC4B2102CF7DB1F
:10163000691EC8B23946FFF791FF002407E006F1A2
:101640001001085D0121FFF7E7FE601CC4B2102CF9
:10165000F5DB00BFD9E72DE9F04105460F461646F8
:10166000002408E021070A0E202101FB045039461E
:10167000FFF7C4FF641CB442F4DBBDE8F08102460E
:1016800000200BE0002105E03E4B03EB81031A54E0
:101690004B1CD9B28029F7DB431CD8B20428F1DBFC
:1016A000704700B50020FFF7EAFF00BD10B5FFF757
:1016B000F8FFFFF76AFF10BD70B5002412E00021AB
:1016C0002046FFF74BFF002508E02E4901EB85017E
:1016D000085D0121FFF7A0FE681CC5B2802DF4DB78
:1016E000601CC4B2042CEADB70BD2DE9F04705464E
:1016F0000C46174698464FF00009802D01DA202C41
:1017000001DBBDE8F0872046E11704EB5171C910F9
:10171000C1F10301CEB2E11704EB5171C910A4EB82
:10172000C101C1F107020121914001F0FF0957B148
:10173000144800EB8500805D40EA0900114901EB87
:101740008501885509E00F4800EB8500805D20EA9F
:1017500009000C4901EB85018855B8F1000F0AD04A
:1017600029463046FFF7FAFE064901EB8501885D00
:101770000121FFF751FE00BFC3E700000004024053
:10178000000802401C0400202DE9FF5F83460E463E
:1017900015461F46B246A5F12000C5B2182F44DBFE
:1017A00000243FE00E9838B105EBC500FF4901EB7E
:1017B000800010F8049008E005EBC500FB4901EB40
:1017C0008000005DC04300F0FF094FF0000823E0F7
:1017D00019F0800F06D00122314658460F9BFFF7C3
:1017E00084FF05E00022314658460F9BFFF77DFF3E
:1017F0004FEA49604FEA1069701CC6B2A6EB0A00B6
:10180000B84205D156460BF1010000F0FF0B06E08F
:1018100008F1010000F0FF08B8F1080FD8DB00BFA5
:10182000601CC4B2242CBDDB55E0002451E00C2F19
:1018300013D10E9838B105EB4500DD4901EB80006E
:1018400010F8049018E005EB4500D94901EB800041
:10185000005DC04300F0FF090EE00E9828B1D548A6
:1018600000EB051010F8049006E0D24800EB0510DC
:10187000005DC04300F0FF094FF0000823E019F0BD
:10188000800F06D00122314658460F9BFFF72DFFEF
:1018900005E00022314658460F9BFFF726FF4FEA2E
:1018A00049604FEA1069701CC6B2A6EB0A00B84244
:1018B00005D156460BF1010000F0FF0B06E008F1E0
:1018C000010000F0FF08B8F1080FD8DB00BF601C72
:1018D000C4B2BC42ABDBBDE8FF9F2DE9FC47074625
:1018E000884614461D46DDE90A9A182D01D10C26BA
:1018F00009E0102D01D1082605E00C2D01D10626A6
:1019000001E0BDE8FC870AE0CDE9009A22782B4689
:1019100041463846FFF738FFB819C7B2641C207833
:101920000028F1D100BFECE702780B7803700A7051
:1019300070477FB514461D46089E9DF800009DF82F
:101940000410884203DD01A96846FFF7EDFF0BE0B4
:1019500033462A4621469DF80000FFF7C6FE9DF853
:101960000000401CC0B200909DF800009DF80410DB
:101970008842EDDD7FBD7FB514461D46089E9DF86B
:1019800000009DF80410884203DD01A96846FFF7B6
:10199000CBFF0BE033462A469DF800102046FFF7A8
:1019A000A4FE9DF80000401CC0B200909DF800000D
:1019B0009DF804108842EDDD7FBD2DE9FF4F85B015
:1019C00080460F4691469A464FF0000B0020039048
:1019D000A9EB0805AAEB0706002D02DD0120029005
:1019E0000EE055B9139B0093524639464046129B70
:1019F000FFF7C1FF09B0BDE8F08F4FF0FF30029054
:101A0000002E02DD012001900CE046B9139B0093EB
:101A10003A4649464046129BFFF78BFFEAE74FF0F4
:101A2000FF300190002D01DA684200E028460546AB
:101A3000002E01DA704200E030460646B54201DD74
:101A40002C4600E0344639464046DDE91223FFF7D4
:101A50004CFE002004901DE039464046DDE912238B
:101A6000FFF743FEAB44039830440390A34505DDE4
:101A7000ABEB040B0298404400F0FF080398A0422F
:101A800005DD0398001B039001983844C7B2049801
:101A9000401C0490611C04988842DDDD00BFA9E76A
:101AA0007FB5DDE908569DF800009DF808108842D2
:101AB00003DD02A96846FFF737FF9DF804009DF893
:101AC0000C10884203DD03A901A8FFF72DFF14E0E5
:101AD0009DF8004008E033462A469DF80410204651
:101AE000FFF703FE601CC4B29DF808008442F2DDDB
:101AF0009DF80400401CC0B201909DF804009DF8C0
:101B00000C108842E4DD7FBD2DE9FF4F81B0064611
:101B10000F4690469946002445464FEA4801C1F1D8
:101B2000030002F0D5FF824669E07A19D1B232197A
:101B3000D0B24A460E9BFFF7D8FD7A19D1B2321BBC
:101B4000D0B24A460E9BFFF7D0FD7A1BD1B23219B4
:101B5000D0B24A460E9BFFF7C8FD7A1BD1B2321BAA
:101B6000D0B24A460E9BFFF7C0FD3A19D1B27219A6
:101B7000D0B24A460E9BFFF7B8FD3A19D1B2721B9C
:101B8000D0B24A460E9BFFF7B0FD3A1BD1B2721994
:101B9000D0B24A460E9BFFF7A8FD3A1BD1B2721B8A
:101BA000D0B24A460E9BFFF7A0FD05E05A57000849
:101BB000F64C00086A5100080021504602F0A0FFD0
:101BC0000CD2A00002F084FF5146009002F012FFF8
:101BD00083462E4902F00EFF82460EE0611B88000C
:101BE00002F076FF5146009002F004FF8346284938
:101BF00002F000FF8246681EC5B2601CC4B2AC424F
:101C000093DBAC423FD17A19D1B23219D0B24A46F5
:101C10000E9BFFF76AFD7A19D1B2321BD0B24A4649
:101C20000E9BFFF762FD7A1BD1B23219D0B24A4641
:101C30000E9BFFF75AFD7A19D1B2321BD0B24A4639
:101C40000E9BFFF752FD3A19D1B27219D0B24A4633
:101C50000E9BFFF74AFD3A19D1B2721BD0B24A4629
:101C60000E9BFFF742FD3A1BD1B27219D0B24A4621
:101C70000E9BFFF73AFD3A1BD1B2721BD0B24A4617
:101C80000E9BFFF732FD05B0BDE8F08F0000C040AD
:101C90000000204110B501F069FBF32001F0A0FD28
:101CA00010BD10B501F06FFB10BD01460020574A72
:101CB000914203D2B1F1006F00D350E0544A9142F7
:101CC00004D2524A914201D3082048E0514A91423D
:101CD00004D24F4A914201D3102040E04E4A914233
:101CE00004D24C4A914201D3182038E04B4A914229
:101CF00004D2494A914201D3202030E0484A91421F
:101D000004D2464A914201D3282028E0454A914214
:101D100004D2434A914201D3302020E0424A91420A
:101D200004D2404A914201D3382018E03F4A914200
:101D300004D23D4A914201D3402010E03C4A9142F6
:101D400004D23A4A914201D3482008E0394A9142EC
:101D500004D2374A914201D3502000E05820704706
:101D60002DE9F04104460D462A4F3846FFF79DFF06
:101D70008046B5F5804F03D94FF0FF30BDE8F081C4
:101D80000221404601F035FB082802D04FF0FF3019
:101D9000F4E700260BE02178384601F03EFC0828E5
:101DA00002D04FF0FF30E9E77F1C641C761CAE4286
:101DB000F1D30020E2E710B50246164CB1F5804F92
:101DC00002D94FF0FF3010BD002304E020781070DE
:101DD000521C641C5B1C8B42F8D30020F3E786B0D6
:101DE00015A207CA03AB07C30A216846FFF7E3FF42
:101DF000FFF750FF0A2103A8FFF7B2FFFFF751FFDB
:101E00000A216846FFF7D7FF00BFFEE70040000841
:101E10000080000800C0000800000108000002085F
:101E200000000408000006080000080800000A0876
:101E300000000C0800000E080B1621040506070818
:101E4000090A0000FF4A106039B1FF4A126842EAED
:101E50000002FE4BC3F8002C06E0FB4A126822EA9F
:101E60000002FA4BC3F8002C704700B585B0012181
:101E7000042000F02AFE0121880300F06AFE002001
:101E80008DF804008DF807004FF40070009069464B
:101E9000EF4800F0DBFB0921022001F0BFFC4FF40A
:101EA0000070039000208DF810000C208DF81100B8
:101EB00001208DF8120003A800F0CBFA17208DF84E
:101EC000080002208DF809008DF80A0001208DF825
:101ED0000B0002A801F089F905B000BD70B54FF400
:101EE000007000F023FBF0B30024002547E04FF41E
:101EF0000071D74800F004FC10B3002408E0601C17
:101F000084B21320FEF79DFFB4F5FA6F00DB06E004
:101F10004FF40071CE4800F0F3FB0028EFD100BF72
:101F20000F2C02DDB4F5FA6F00DB29E004EB84002E
:101F30008004000CC74921F81500681C85B21EE01A
:101F4000002404E0601C84B21320FEF77AFF4FF4F3
:101F50000071BF4800F0D4FB0028F3D00F2C04DD43
:101F6000B4F5FA6F00E013E000DB09E004EB840055
:101F70008004000CB74921F81500681C85B2B6E74B
:101F800000BF4FF4007000F0E2FAB348058000BFD4
:101F900070BD30B58BB040F267740025AF48006863
:101FA0004008AF49B0FBF1F0401E85B240F20D246D
:101FB0000121022000F089FD0121022000F0B8FD7E
:101FC000022009908DF8280003208DF829000020B8
:101FD0008DF82A0001208DF82B0009A9A14800F0F6
:101FE00035FB02219F4800F0A5FB022201219D48FC
:101FF00000F0AFFB0794ADF818500020ADF82000BA
:10200000ADF81A0006A9984801F0EFFC6020ADF881
:1020100004000120ADF80600601C032190FBF1F0E4
:1020200003900020ADF8100001A98F4801F056FE82
:1020300008218D4801F008FF01218B4801F040FD87
:102040000121894801F05AFD0BB030BD1CB50121BA
:10205000042000F03AFD5020009001208DF804008B
:1020600000208DF806008DF8070002208DF805008D
:102070006946774800F0EAFA5021754800F05CFBA9
:102080001CBD7448408808B978A0704771484088E2
:1020900040F6AC51884207DD6E48408841F27C51E1
:1020A000884201DA75A0F0E778A0EEE76A48008878
:1020B0007047002004E00021664A22F81010401CFE
:1020C000B0F5FA7FF7DB704710B50446734804702B
:1020D00021464FF40070FFF7B5FE34B1FFF7E9FF7A
:1020E00010215B4800F026FB03E01021584800F067
:1020F00023FB10BD69480078704710B5FFF7CAFD93
:1021000043F2C8216648FFF72BFEFFF7CAFD10BD5A
:1021100010B50446002307E04E4830F81300E118DC
:102120005F4A22F811005B1CB3F5FA7FF4DBFFF77E
:10213000C0FF10BD70B505465AA002F0BDFA0024DC
:102140000CE02CB935F8141058A002F0B5FA04E0F0
:1021500035F8141056A002F0AFFA641CB4F5FA7FFB
:10216000EFDB55A002F0A8FA00241CE0600035F86F
:102170001000B8B16000401C35F8100090B140214B
:10218000334800F0D7FA610035F81100FEF759FE28
:1021900040212F4800F0D0FA6100491C35F81100A9
:1021A000FEF74FFE641CFA2CE0DB4021284800F0CB
:1021B000C1FA40F22B20FEF744FE4021244800F0F3
:1021C000BBFA70BD70B505463448007800B170BDEB
:1021D0003AA002F071FA002411E03CB96019304ACB
:1021E00032F8101031A002F067FA06E060192C4AAC
:1021F00032F810102EA002F05FFA601C84B2B4F521
:10220000FA7FEADB214630A002F056FA00246CE0A7
:102210006019234931F8106056B1A6F57F40FF38A8
:1022200006D040210A4800F085FA3046FEF709FE44
:10223000601C84B260191A4931F8106006B147E099
:1022400051E00000143C0140003C014000300140DE
:10225000000802400C000020F603002008040020C3
:10226000002D3101000402400004004077617469D0
:102270006E672E2E202020202020200070726F7488
:102280006F636F6C3A204E454320200070726F746C
:102290006F636F6C3A206F7468657200F4030020FE
:1022A0001C0600206172723D5B0000002564000086
:1022B0002C202564000000005D0D0A006972446155
:1022C0007461733D5B0000005D2025640D0A000011
:1022D000A6F57F40FF3806D040213F4800F02CFA99
:1022E0003046FEF7AEFD601C84B2B4F5FA7F8FDB9A
:1022F0004021394800F01EFA40F22B20FEF7A1FDE4
:102300004021354800F018FA00BF60E710B53348A7
:10231000007800B110BD32A002F0CEF9002410E028
:102320003CB9324830F81410AFF2800002F0C4F922
:1023300006E02E4830F81410AFF28C0002F0BCF921
:10234000641CB4F5FA7FEBDB2146AFF2840002F0A7
:10235000B3F900241FE06000244931F81000C8B12F
:102360006000401C31F81000A0B140211A4800F074
:10237000E1F961001D4A32F81100FEF762FD4021CB
:10238000154800F0D9F96100491C184A32F81100CB
:10239000FEF757FD641CFA2CDDDB40210E4800F0EF
:1023A000C9F940F22B20FEF74CFD40210A4800F00D
:1023B000C3F900BFAEE710B5FFF748FEFFF7E9FD30
:1023C000FFF753FD0020FFF77FFE43F2C8210848C6
:1023D000FFF7F1FC10BD000000080240F4030020EC
:1023E00050756C73655461623D5B00000C00002009
:1023F0001C0600200948804709480047FEE7FEE721
:10240000FEE7FEE7FEE7FEE7FEE7FEE7FEE7FEE7A4
:1024100004480549054A064B7047000083450008FB
:102420008501000848390020483F0020483B002033
:10243000483B00200020474908604749C1F8040C88
:102440004649086001F104010860454845490860B3
:10245000704700213F498279DAB33F4AD2F8002C15
:1024600003689A433C4BC3F8002C1A46D2F8042C5C
:1024700003689A4301F104031A60027911440A685F
:10248000036842EA03020A60334AD2F8082C036860
:1024900022EA0302304BC3F8082C1A46D2F80C2C5F
:1024A000036822EA0302304B1A604279102A11D1E4
:1024B000294AD2F8082C03681A43274BC3F8082C82
:1024C0001A46D2F80C2C03681A43234BC3F80C2C81
:1024D0000EE007E01F49427911440A6803681A4375
:1024E0000A6005E0027911440A6803689A430A60A9
:1024F00070470021016001710C214171002181713F
:1025000070471A49096841EA0001134AC2F8101CD1
:10251000704701460020134A12680A4201D0012088
:1025200000E0002070470F49086070470146002016
:102530000022084B1B6803EA0102074BD3F8143C46
:102540000B4202D00AB1012000E00020704705498B
:1025500008607047003C014000300140083C0140E9
:10256000FFFF7F00143C01400C3C0140103C014047
:1025700010B504468848844208D10121084600F07D
:10258000F9FA0021012000F0F5FA5EE08348844268
:1025900008D10121022000F0EDFA0021022000F014
:1025A000E9FA52E07E48844208D10121042000F07B
:1025B000E1FA0021042000F0DDFA46E07948844287
:1025C00008D10121082000F0D5FA0021082000F0F0
:1025D000D1FA3AE07448844208D10121102000F079
:1025E000C9FA0021102000F0C5FA2EE06F4884429D
:1025F00008D10121202000F0BDFA0021202000F0A8
:10260000B9FA22E06A48844208D10121402000F052
:10261000B1FA0021402000F0ADFA16E0654884428E
:1026200008D10121802000F0A5FA0021802000F0CF
:10263000A1FA0AE06048844207D10121801500F028
:1026400099FA0021A01500F095FA10BDF0B50A46E0
:1026500000210023002400BF3DE0012505FA01F31D
:10266000156805EA03049C4234D105684F0003262F
:10267000BE40B543056015794E00B5400668354348
:1026800005601579012D02D01579022D16D18568C6
:102690004F000326BE40B543856055794E00B540D6
:1026A000866835438560456801268E40B5434560A0
:1026B000456896798E40B6B235434560C5684F008F
:1026C0000326BE40B543C560D5794E00B540C66807
:1026D0003543C560491C1029BFD3F0BD4FF6FF71CB
:1026E00001600021017141718171C17170474FF426
:1026F00080320A43C261C161C261C269C269704766
:102700000246002013690B4201D0012000E00020A6
:1027100070470146086980B270470246002053693D
:102720000B4201D0012000E00020704701464869BB
:1027300080B2704701837047418370470AB10183BB
:1027400000E0418370474161704742694A404261FD
:102750007047F0B5002300244D07ED0E02FA05F393
:10276000CE1000F1200555F826504E07F70E0F2623
:10277000BE40B543CF1000F1200646F82750CE10DA
:1027800000F1200555F8265045EA0304CE1000F16B
:10279000200545F82640F0BD00000240000402403C
:1027A00000080240000C02400010024000140240E9
:1027B00000180240001C024000200240FA48006855
:1027C00040F00100F949C1F800084FF00000C1F8DD
:1027D0000808F5480068F64900EA0100F249086077
:1027E000F448F249C1F804080846D0F8000820F47B
:1027F0008020ED4908604FF00000EF490860704705
:102800000021EE4A1170E94981F80208704710B5BD
:1028100001460022002300204A11012A02D1E24C85
:10282000236806E0022A02D1E54C236801E0E54C6A
:10283000236801F01F02012494401C4201D00120B2
:1028400000E0002010BD70B500240025002600BF68
:102850003120FFF7DCFF0646641CB4F5A06F01D001
:10286000002EF5D03120FFF7D2FF08B1012500E09E
:102870000025284670BD01460020CB4A106820F094
:10288000F80040EAC100C94AC2F800087047CE49C2
:10289000086070470021CA4A1170C44A82F8701853
:1028A000012802D0042808D103E00121C44A117094
:1028B00004E00521C24A117000E000BF00BF70476C
:1028C000C2490860704770B5049C41EA8215012630
:1028D000C6EB530645EA0645054345EA0465BC4E8A
:1028E000356070BDB84908667047820142EA0172DE
:1028F000B84B1A607047B44988667047B249C864DB
:10290000704702460020B44B186820F0EC6042EAA1
:10291000010343EA0000A54BC3F8080870470246CC
:102920000020AD4B186820F0784042EA010343EAEA
:1029300000009E4BC3F80808704701460020A64AD5
:10294000106820F0030040EA0100984AC2F8080825
:102950007047A148006800F00C0070470146002055
:102960009D4A106820F0F00040EA01008F4AC2F84A
:102970000808704701460020974A106820F4E0508C
:1029800040EA0100894AC2F8080870470146002061
:10299000914A106820F4604040EAC100834AC2F8BE
:1029A00008087047F0B50021002200240225002607
:1029B0000223894F3F6807F00C0121B1042905D09B
:1029C000082933D105E0854F076032E0844F076066
:1029D0002FE07F4F3F68C7F38056744FD7F80478D5
:1029E00007F03F035EB17E4FB7FBF3F7DFF8BCC1E2
:1029F000DCF804C8CCF3881C07FB0CF40AE0774F22
:102A0000B7FBF3F7DFF8A4C1DCF804C8CCF3881CEB
:102A100007FB0CF46E4F3F68C7F3014707F101074E
:102A20004FEA4705B4FBF5F7076002E06B4F07601C
:102A300000BF00BF684F3F6807F0F0014FEA111177
:102A4000684F7A5C076827FA02F74760574FD7F854
:102A5000087807F4E0514FEA9121624F7A5C4768A9
:102A600027FA02F787605C4F3F6807F460414FEA3E
:102A700051315C4F7A5C476827FA02F7C760F0BDB6
:102A8000002100F44072B2F5407F0BD1524A116828
:102A900021F4F811544A00EA020242EA0101434AD1
:102AA000C2F80818464A1268C0F30B0342EA030250
:102AB0003E4BC3F8702870474C49086070474C493A
:102AC000086070474B490860704739B14A4A12683C
:102AD00042EA0002354BC3F8302806E0464A126845
:102AE00022EA0002314BC3F83028704739B1434A1B
:102AF000126842EA00022D4BC3F8342806E03F4A30
:102B0000126822EA0002294BC3F83428704739B111
:102B10003B4A126842EA0002244BC3F8382806E018
:102B2000374A126822EA0002204BC3F8382870475F
:102B300039B1344A126842EA00021C4BC3F84028FB
:102B400006E0304A126822EA0002184BC3F8402817
:102B5000704739B12C4A126842EA0002134BC3F89D
:102B6000442806E0284A126822EA00020F4BC3F804
:102B70004428704739B1254A126842EA00020B4BDB
:102B8000C3F8102806E0214A126822EA0002074B27
:102B9000C3F810287047E9B31D4A126842EA0002E0
:102BA000024BC3F814283DE00038024000300240D8
:102BB000FFFFF6FE103000240C38024002380240BD
:102BC000703802407438024000004742800E47428D
:102BD0000438024084380240083802400024F400DF
:102BE000001BB700F8030020FFFCFF0F3C0E47421C
:102BF000400E47425C0147423038024034380240C0
:102C00003838024040380240443802401038024010
:102C100014380240FFE75C4A126822EA00025B4B6C
:102C2000C3F81428704739B1594A126842EA0002C1
:102C3000564BC3F8182806E0554A126822EA0002EB
:102C4000524BC3F81828704739B1524A126842EA09
:102C500000024E4BC3F8202806E04E4A126822EAD2
:102C600000024A4BC3F82028704739B14A4A12681B
:102C700042EA0002454BC3F8242806E0464A12689F
:102C800022EA0002414BC3F82428704739B1434A75
:102C9000126842EA00023D4BC3F8502806E03F4A62
:102CA000126822EA0002394BC3F85028704739B144
:102CB0003B4A126842EA0002344BC3F8542806E04B
:102CC000374A126822EA0002304BC3F85428704792
:102CD00039B1344A126842EA00022C4BC3F8582832
:102CE00006E0304A126822EA0002284BC3F858284E
:102CF000704739B12C4A126842EA0002234BC3F8EC
:102D0000602806E0284A126822EA00021F4BC3F836
:102D10006028704739B1254A126842EA00021B4B0D
:102D2000C3F8642806E0214A126822EA0002174B21
:102D3000C3F86428704739B11D4A127842EA00028C
:102D4000124B83F80D2809E0194A12786FEA000344
:102D5000DBB202EA03020D4B83F80D2870471548D9
:102D6000006840F080700949C1F874087047014656
:102D70000020114A12680A4201D0012000E0002020
:102D800070470E4908707047143802400030024006
:102D9000183802402038024024380240503802409F
:102DA00054380240583802406038024064380240CB
:102DB0000D380240743802400C3802400E38024090
:102DC00010B50446F848844208D101211020FFF7CD
:102DD0004CFF00211020FFF748FF3EE0F3488442FB
:102DE00009D101214804FFF72FFF00214FF40030E3
:102DF000FFF72AFF31E0EE48844209D1012188041F
:102E0000FFF722FF00214FF48020FFF71DFF24E091
:102E1000E848844209D10121C804FFF715FF0021C9
:102E20004FF40020FFF710FF17E0E348844209D178
:102E300001210805FFF708FF00214FF48010FFF77C
:102E400003FF0AE0DD48844207D101212020FFF77B
:102E50000CFF00212020FFF708FF10BD2DE9FF47E0
:102E600005460E460024A14600BFA046B08900B129
:102E700000BF2C8A24F44054F08804432C82AC898F
:102E800041F20C608443B08831890843718908435A
:102E90000443AC81AC8A24F44074B0890443AC820E
:102EA0006846FFF77FFDC048854202D0C34885428F
:102EB00002D1DDF80C9001E0DDF80890A88910F44B
:102EC000004F08D009EBC90000EB09103168490038
:102ED000B0FBF1F707E009EBC90000EB091031681E
:102EE0008900B0FBF1F76420B7FBF0F00401200982
:102EF000642101FB1078A88910F4004F08D032201B
:102F000000EBC800B0FBF1F000F00700044308E05C
:102F1000322000EB08106421B0FBF1F000F00F004C
:102F200004432C81BDE8FF874FF416510160002156
:102F30008180C18001810C21418100218181704704
:102F400010B502460020108A20F470600B884C886F
:102F500023438C882343CC8823431843108210BD1D
:102F60000021018041808180C180704721B1828928
:102F700042F40052828104E082894DF6FF731A40C8
:102F800082817047028B02F47F420283028B0A43E4
:102F90000283704721B1828942F40042828103E0BA
:102FA0008289C2F30E028281704721B1828A42F483
:102FB0000062828204E0828A4FF2FF731A408282AA
:102FC0007047C1F308028280704701468888C0F3C9
:102FD00008007047028A4FF6F0731A400282028A94
:102FE0000A430282704721B1828942F00202828143
:102FF00004E082894FF6FD731A408281704782890E
:103000004FF2FF731A40828182890A43828170479E
:10301000028A4FF6DF731A400282028A0A43028252
:10302000704721B1028A42F48042028204E0028A9F
:103030004BF6FF731A4002827047818941F001010B
:103040008181704721B1828A42F00802828204E0C5
:10305000828A4FF6F7731A4082827047028BD2B28F
:103060000283028B42EA01220283704721B1828AE5
:1030700042F02002828204E0828A4FF6DF731A4017
:103080008282704721B1828A42F01002828204E07B
:10309000828A4FF6EF731A4082827047828A4FF617
:1030A000FB731A408282828A0A438282704721B16E
:1030B000828A42F00202828204E0828A4FF6FD7325
:1030C0001A408282704710B51AB1838A0B438382FB
:1030D00004E0838ACC43A4B22340838210BDF0B5C0
:1030E00003460024002600250020A1F510676A3F52
:1030F00000D100BF1846C1F3421401F01F0601279A
:1031000007FA06F5012C01D10C3004E0022C01D1A4
:10311000103000E014301AB107682F43076002E056
:103120000768AF430760F0BD02460020B1F5007F9D
:1031300000D100BF13880B4201D0012000E0002025
:10314000704701F40072B2F5007F00D100BFCA439E
:103150000280704770B5024600240023002500203D
:10316000A1F510666A3E00D100BFC1F3421501F01F
:103170001F03012606FA03F3012D02D1968933407D
:1031800006E0022D02D1168A334001E0968A3340D0
:103190000C12012606FA04F41688344013B10CB15F
:1031A000012000E0002070BD0010014000440040FC
:1031B00000480040004C0040005000400014014016
:1031C00010B500220023A1F510646A3C00D100BFB5
:1031D0000A1201249440A3B2DC43048010BD000015
:1031E00038490143384A1160704770B50021002307
:1031F0000F22C47874B3344C246804F4E064C4F53A
:10320000E064C4F30721C1F10404E3B242FA01F41B
:10321000E2B2447804FA03F4E1B2847804EA0204E6
:1032200044EA01014FEA01744FEA1461274C057822
:103230006155047804F01F054FF0010404FA05F409
:1032400005784FEA65154FF0E02606EB8505C5F8D1
:10325000004109E0047804F01F050124AC401C4D36
:103260000678761145F8264070BD1A4A0A40024396
:10327000194B1A60704741B1184A126842EA0002BD
:103280004FF0E023C3F8102D07E0144A126822EA39
:1032900000024FF0E023C3F8102D7047042808D136
:1032A0004FF0E021096941F004014FF0E022116183
:1032B00007E04FF0E021096921F004014FF0E0221E
:1032C000116170470000FA050CED00E000E400E039
:1032D00080E100E080FFFF1F08ED00E010ED00E05E
:1032E000FA4A1070704738B1F849096841F48071A2
:1032F000F74AC2F8001C06E0F449096821F480711D
:10330000F34AC2F8001C704738B1F049096841F42B
:103310000071EF4AC2F8001C06E0EC49096821F48C
:103320000071EB4AC2F8001C704738B1E7490968E0
:1033300041F48061E64AC2F8001C06E0E3490968EE
:1033400021F48061E24AC2F8001C7047DF4800683F
:1033500040F40060DE49C1F8000C7047DB480068AB
:1033600040F48050DA49C1F8000C7047D948006831
:1033700010F0004F06D0D848D8490860D848D44942
:10338000C1F8040C7047D348006840F00040D049B1
:10339000C1F8100C70470820D249096801F4803147
:1033A000B1F5803F01D1012015E0CE49096811F047
:1033B000100F01D005200EE0CA49096811F0EF0F87
:1033C00001D0062007E0C749096811F0020F01D0BB
:1033D000072000E00820704700B50822FFF7DBFF58
:1033E000024602E0FFF7D7FF0246012AFAD0104654
:1033F00000BD70B504460B460026082503B909E058
:10340000012B01D11E0205E0022B01D11E0201E0B9
:103410004FF44076FFF7E0FF0546082D36D1AD4862
:10342000006820F44070AA49C1F8100C0846D0F892
:10343000100C40EA0600C1F8100C0846D0F8100C39
:1034400020F0F800C1F8100CA248006844F0020116
:1034500040EA01009E49C1F8100C0846D0F8100C53
:1034600040F480309B490860FFF7B6FF0546984856
:10347000D0F8100C20F002009549C1F8100C084655
:10348000D0F8100C20F0F800C1F8100C284670BDE0
:1034900030B5034600250824FFF79EFF044603B914
:1034A00009E0012B01D11D0205E0022B01D11D0213
:1034B00001E04FF44075082C26D18648006820F4BE
:1034C00040708349C1F8100C0846D0F8100C40EA4F
:1034D0000500C1F8100C0846D0F8100C40F00400AC
:1034E000C1F8100C0846D0F8100C40F4803079492F
:1034F0000860FFF771FF04467548D0F8100C20F003
:1035000004007349C1F8100C204630BD70B5064662
:1035100014461D464FF00803FFF75EFF0346082BD5
:1035200021D16C48006820F440706949C1F8100C42
:103530000846D0F8100C40F44070C1F8100C084652
:10354000D0F8100C40F00100C1F8100CC6E900459D
:10355000FFF742FF03465E48D0F8100C20F0010050
:103560005B49C1F8100C184670BD30B503460C46D7
:103570000825FFF731FF0546082D20D15548006882
:1035800020F440705249C1F8100C0846D0F8100CD5
:1035900040F40070C1F8100C0846D0F8100C40F050
:1035A00001004C4908601C60FFF716FF05464848BB
:1035B000D0F8100C20F001004549C1F8100C284645
:1035C00030BD30B503460C460825FFF705FF05461C
:1035D000082D20D13F48006820F440703C49C1F8D4
:1035E000100C0846D0F8100C40F48070C1F8100C94
:1035F0000846D0F8100C40F00100364908601C80E5
:10360000FFF7EAFE05463248D0F8100C20F0010022
:103610002F49C1F8100C284630BD30B503460C4682
:103620000825FFF7D9FE0546082D1DD12948006859
:1036300020F440702649C1F8100C26480068C1F8F3
:10364000100C0846D0F8100C40F001002149086029
:103650001C70FFF7C1FE05461D48D0F8100C20F085
:1036600001001B49C1F8100C284630BD1E480068F7
:1036700010F0010F06D01D481D4908601D4814496F
:10368000C1F8080C70471848006840F00100104964
:10369000C1F8140C704730B503460C460825FFF7F7
:1036A0009BFE0546082D10D13CB11348008820EA46
:1036B00003000749A1F8160C07E00F48008899B2EB
:1036C00040EA01000249A1F8160C30BD003C02405E
:1036D00000300240103C024023016745043C024098
:1036E000AB89EFCD0C3C0240143C02403B2A190848
:1036F000083C02407F6E5D4C163C024010B503460C
:103700000824FFF769FE0446082C01D136480370EF
:1037100010BDF0B503460C461546FF260827FFF7F7
:103720005BFE0746082F0CD13048007800F00F06EA
:1037300044EA060040EA050040EA03002C4981F80B
:10374000140CF0BD2949097821F00C01284A82F8AF
:10375000141C114691F8141C41EA000182F8141C53
:10376000704700B508232148007840F00200204946
:1037700081F8140CFFF730FE0346184600BD1B48C5
:103780000068C0F3471070471A480088704700204F
:1037900015490978AA2901D0012000E000207047CE
:1037A0001248007800F00C00704739B1124A1268D4
:1037B00042EA00020E4BC3F8102C06E00E4A1268D3
:1037C00022EA00020A4BC3F8102C70470146002081
:1037D0000A4A12680A4201D0012000E00020704726
:1037E0000649086070470000153C0240143C024046
:1037F00000300240163C0240103C02400C3C0240AB
:1038000010B501218803FFF730FA00214FF4804002
:10381000FFF72BFA10BD1A490860704730B5002237
:103820008B071C0F0F2303FA04F2154B08338C107F
:1038300053F824309343124C08348D1044F825304B
:1038400023468C1053F824308C07240F00FA04F41C
:1038500023430B4C08348D1044F8253030BD094902
:1038600008607047084908607047002007490968E8
:1038700011F4807F01D0012000E00020704700009B
:1038800000380140DC002742000427422038014074
:1038900010B50446FF48844208D101210846FFF7CD
:1038A000E4F900210120FFF7E0F99DE0B4F1804F39
:1038B00008D101210846FFF7C7F900210120FFF7D1
:1038C000C3F991E0F448844208D101210220FFF7B6
:1038D000BBF900210220FFF7B7F985E0EF488442E9
:1038E00008D101210420FFF7AFF900210420FFF7E0
:1038F000ABF979E0EA48844208D101210820FFF7BA
:10390000A3F900210820FFF79FF96DE0E548844204
:1039100008D101211020FFF797F900211020FFF7AF
:1039200093F961E0E048844208D101212020FFF7AB
:103930008BF900212020FFF787F955E0DB4884420E
:1039400008D101210220FFF790F900210220FFF7A2
:103950008CF949E0D648844209D101210804FFF7D7
:1039600084F900214FF48030FFF77FF93CE0D14823
:10397000844209D101214804FFF777F900214FF46F
:103980000030FFF772F92FE0CB48844209D10121C2
:103990008804FFF76AF900214FF48020FFF765F9EA
:1039A00022E0C648844208D101214020FFF74CF9AB
:1039B00000214020FFF748F916E0C148844208D1B1
:1039C00001218020FFF740F900218020FFF73CF91A
:1039D0000AE0BC48844207D101218015FFF734F981
:1039E0000021A015FFF730F910BD00220288A94B75
:1039F00098420ED0AD4B98420BD0B0F1804F08D01A
:103A0000A54B984205D0A54B984202D0A44B9842B2
:103A100004D14FF68F731A404B881A43A14B98423A
:103A200007D0A14B984204D04FF6FF431A400B89B0
:103A30001A4302804B68C3620B880385954B9842FA
:103A400002D09A4B984201D18B7A0386012383825C
:103A500070474FF0FF3141600021018001814180BA
:103A6000817270470185828270470A460021018871
:103A70004FF68F73194011430180704741627047C0
:103A8000C16270470146486A70470146088D704719
:103A900021B1028842F00202028004E002884FF65F
:103AA000FD731A400280704721B1028842F004027F
:103AB000028004E002884FF6FB731A4002807047D0
:103AC00021B1028842F08002028004E002884FF6B1
:103AD0007F731A400280704702884FF6F7731A40CE
:103AE000028002880A430280704702884FF6FF4333
:103AF0001A40028002880A430280704721B102887E
:103B000042F00102028004E002884FF6FE731A4080
:103B10000280704770B5002400220023058C4FF608
:103B2000FE7635400584028C8388048B4FF68F75B2
:103B30002C40B51E2C400D882C43751E2A408D89C3
:103B40002A434D882A43534DA84202D0574DA842DC
:103B500013D14FF6F7752A40CD892A434FF6FB75EE
:103B60002A408D882A434FF6FF652B404FF6FF55BC
:103B70002B400D8A2B434D8A2B43838004838D6811
:103B80004563028470BD70B5002400220023058CBB
:103B90004FF6EF7635400584028C8388048B48F617
:103BA000FF752C404FF6FF452C400D882D0644EA4A
:103BB00015444FF6DF752A408D892D0542EA1542DE
:103BC0004D882D0542EA1542324DA84202D0374DAC
:103BD000A8421BD14FF67F752A40CD892D0542EAB8
:103BE00015424FF6BF752A408D882D0542EA1542D1
:103BF0004FF6FF352B404FF2FF752B400D8AAD0479
:103C000043EA15434D8AAD0443EA15438380048398
:103C10008D688563028470BD70B500240022002386
:103C2000058C4FF6FF6635400584028C8388848BB3
:103C30004FF68F752C404FF6FC752C400D882C43A9
:103C40004FF6FF552A408D892D0642EA15424D88D0
:103C50002D0642EA15420F4DA84202D0134DA8424C
:103C600036D14FF2FF752A40CD892D0642EA154222
:103C70004FF6FF352A408D882D0642EA15424EF652
:103C8000FF752B404DF6FF752B400D8A2D0543EA3D
:103C9000154319E000000140000400400008004006
:103CA000000C0040001000400014004000040140DF
:103CB000004001400044014000480140001800401D
:103CC000001C0040002000404D8A2D0543EA1543AA
:103CD000838084838D68C563028470BD70B50022C3
:103CE00000230024058C4EF6FF7635400584038CB6
:103CF0008488828B48F6FF752A404FF6FF452A409C
:103D00000D882D0642EA15424DF6FF752B408D8930
:103D10002D0743EA15434D882D0743EA1543FF4D10
:103D2000A84202D0FE4DA84206D14BF6FF752C40AA
:103D30000D8AAD0544EA1544848082838D6805644C
:103D4000038470BD00210180418081808160818178
:103D5000C18101824182704770B503460020002472
:103D60001846183001258D40ACB21D8CE643B6B222
:103D700035401D8409B108290AD100EB61000568AE
:103D80004FF68F76354005600568154305600DE0F8
:103D90000D1FADB200EB6500056848F6FF763540B3
:103DA00005600568160645EA1645056070BD416365
:103DB000704781637047C1637047016470470A466A
:103DC0000021018B4FF68F73194011430183704717
:103DD0000A460021018B48F6FF731940130641EA99
:103DE0001341018370470A460021818B4FF68F7380
:103DF00019401143818370470A460021818B48F6A0
:103E0000FF731940130641EA1341818370470A4644
:103E10000021018B4FF6F77319401143018370475E
:103E20000A460021018B4FF2FF731940130641EA45
:103E30001341018370470A460021818B4FF6F773C7
:103E400019401143818370470A460021818B4FF24C
:103E5000FF731940130641EA1341818370470A46F4
:103E60000021018B4FF6FB7319401143018370470A
:103E70000A460021018B4FF6FF331940130641EA31
:103E80001341018370470A460021818B4FF6FB7373
:103E900019401143818370470A460021818B4FF6F8
:103EA000FF331940130641EA1341818370470A46E4
:103EB0000021018B4FF67F73194011430183704736
:103EC0000A460021018BC1F30E01130641EA13419A
:103ED000018370470A460021818B4FF67F7319409A
:103EE0001143818370470A460021818BC1F30E0183
:103EF000130641EA1341818370470A460021018C71
:103F00004FF6FD7319401143018470470A460021A2
:103F1000018C4FF6F77319401143018470470A462C
:103F20000021018C4FF6DF731940130541EA13415C
:103F3000018470470A460021018C4FF67F731940B7
:103F4000130541EA1341018470470A460021018CA0
:103F50004FF6FF531940130641EA1341018470479D
:103F60000A460021018C4FF2FF731940130641EA03
:103F70001341018470470A460021018C4DF6FF73FE
:103F80001940130741EA13410184704730B50023FB
:103F900001248C40A3B2048CDD43ADB22C400484D8
:103FA000048C02FA01F5ADB22C43048430BD30B567
:103FB000002304248C40A3B2048CDD43ADB22C401A
:103FC0000484048C02FA01F5ADB22C43048430BDA4
:103FD000828B4FF2FF331A408283828B0B0642EAB8
:103FE000134282837047F0B50C461546002100222B
:103FF0000026078C4EF6FF7C07EA0C070784818BAE
:10400000028C27073E0C40F6FF4739402F0641EA55
:1040100017411F0741EA174145F6FF773A4046F43A
:1040200080573A4381830284F0BD828B4FF6F3734D
:104030001A408283828B0A4382837047F0B50C4614
:104040001546002100220026078C4FF6FF6C07EA78
:104050000C070784818B028C27063E0C4FF60C77E9
:1040600039401F0545EA174739434FF2FF573A4099
:1040700046F480773A4381830284F0BD028B4FF28D
:10408000FF331A400283028B0B0642EA134202837B
:104090007047F0B50C461546002100220026078C1B
:1040A0004FF6EF7C07EA0C070784018B028C27058B
:1040B0003E0C40F6FF4739401F0741EA17412F06E3
:1040C00041EA17414FF65F773A4046F010073A430E
:1040D00001830284F0BD028B4FF6F3731A40028312
:1040E000028B0A4302837047F0B50C461546002147
:1040F0000022068C4FF6FE773E400684018B028C30
:104100004FF60C7631401E0545EA164631434FF610
:10411000F576324044F00106324303E000000140EE
:104120000004014001830284F0BD70B505460C46D1
:10413000208850B92389A28861882846FFF7D4FFD8
:10414000E1882846FFF7C7FF25E0208804280AD128
:104150002389A28861882846FFF79BFFE1882846CB
:10416000FFF78CFF17E0208808280AD12389A2884E
:1041700061882846FFF762FFE1882846FFF755FF70
:1041800009E02389A28861882846FFF72CFFE1888F
:104190002846FFF71DFF70BD0021018041800121ED
:1041A00081800021C180018170472DE9F0410546E1
:1041B0000C4600260127608808B9022600E0002688
:1041C000A088012801D1022700E001272088A0B99A
:1041D0002389A28861882846FFF786FFE188284660
:1041E000FFF779FF23893A4631462846FFF751FF0A
:1041F000E1882846FFF742FF13E02389A2886188FF
:104200002846FFF746FFE1882846FFF737FF238956
:104210003A4631462846FFF767FFE1882846FFF710
:104220005AFFBDE8F0810146486B70470146886B34
:1042300070470146C86B70470146086C70470A8892
:104240004B881A438B881A43CB881A430B891A432D
:104250004B891A438B891A43A0F8442070470021E8
:10426000018041808180C1800181418181817047CD
:1042700031B1B0F8442042F40042A0F8442005E0F7
:10428000B0F84420C2F30E02A0F84420704721B1D8
:10429000828842F00402828004E082884FF6FB7339
:1042A0001A408280704721B1828842F001028280E8
:1042B00004E082884FF6FE731A408280704710B582
:1042C0001AB183890B43838104E08389CC43A4B270
:1042D0002340838110BD8182704702460020138AEB
:1042E0000B4201D0012000E000207047CA43028247
:1042F000704730B50246002000230024158A05EAE5
:104300000103958905EA010413B10CB1012000E015
:10431000002030BDCA430282704741EA0203A0F880
:104320004830704710B51AB183890B43838104E08C
:104330008389CC43A4B22340838110BD21B18288FC
:1043400042F00802828004E082884FF6F7731A4038
:104350008280704701894FF6F872114001817047E1
:104360000A46002101894FF68F73194011430181DC
:10437000704730B504460D4629462046FFF7F0FF4A
:10438000208940F00700208130BD2DE9F04104462E
:104390000D4616461F46602D06D13B46012231468A
:1043A0002046FFF776FE05E03B46012231462046D7
:1043B000FFF79AFE29462046FFF7D2FF208940F0FA
:1043C00007002081BDE8F08130B50C46002101894D
:1043D000C9B21D0642EA154525432943018130BD76
:1043E0002DE9F04105460E461746984600244346FF
:1043F0003A4631462846FFF7E7FF2C894FF6F87119
:104400000C4044F007044FF68F710C4044F07004E8
:104410002C81BDE8F081F0B504460D4616461F46D6
:104420003B46324629462046FFF7CEFF208940F41E
:1044300080402081F0BD82884FF68F731A408280C1
:1044400082880A438280704702894FF6F8731A40C7
:10445000028102890A430281704702894FF67F7305
:104460001A40028102890A4302817047F0B50C4666
:1044700015461E460021002200230189028B038C71
:104480004FF6F877394021434FF6FC473A4040F267
:1044900001173A434FF6DD773B40370545EA1747AA
:1044A0003B43018102830384F0BD21B1828842F045
:1044B0008002828004E082884FF67F731A408280F7
:1044C0007047A0F850107047002100206C4A126815
:1044D00042F480326B4BC3F8002800BF684A126870
:1044E00002F4003001F1010110B9B1F5A06FF5D16E
:1044F000634A126812F4003F01D0012000E000205E
:1045000001283DD1604A12685E4BC3F808281A465C
:10451000D2F8082842F40042C3F808281A46D2F814
:10452000082842F4A052584B1A60584A554BC3F819
:1045300004281A46D2F8002842F08072504B1A60C4
:1045400000BF4F4A126812F0007FFAD040F20372A7
:104550004F4B1A604B4AD2F8082822F00302494B0D
:10456000C3F808281A46D2F8082842F00202464B3F
:104570001A6000BF444A126802F00C02082AF9D1FE
:10458000704710B53E48006840F001003D49C1F851
:1045900000084FF00000C1F80808394800683D499C
:1045A00000EA0100364908603B483649C1F8040872
:1045B0000846D0F8000820F48020314908604FF008
:1045C000000036490860FFF77FFF4FF000604FF0B2
:1045D000E021C1F8080D10BD70B5002000220223B3
:1045E00000240221284D2D6805F00C0020B104287C
:1045F00006D0082832D107E0294D2A4E356031E037
:10460000294D284E35602DE0284D2D68C5F3805486
:104610001C4DD5F8045805F03F014CB1224DB5FBB7
:10462000F1F5224E3668C6F3881605FB06F208E05F
:104630001B4DB5FBF1F51D4E3668C6F3881605FB1C
:1046400006F21A4D2D68C5F3014505F101054FEA43
:104650004503B2FBF3F5134E356003E0104D114EE8
:10466000356000BF00BF084D2D68C5F30315104E1F
:10467000705D0C4D2D6825FA00F50A4E356070BD51
:104680000038024000300240083802400C3C40052F
:10469000003C0240FFFFF6FE103000240C380240C0
:1046A0000024F40008040020001BB7000438024076
:1046B0000C040020704700000FB4044910B503AA91
:1046C000029800F043F910BC5DF814FB08000020CC
:1046D0000FB41CB5074B06AA7B44694600900598A9
:1046E00000F005F90020694600F014F91CBC5DF8E3
:1046F00014FB0000390200002DE9F04104460E468B
:1047000000200AE0E1682046884738B3252806D013
:10471000D4E901219047206A401C2062F2E7E16859
:10472000204600278847050018D0A5F14100192828
:1047300002D820354FF400673246294620462760CC
:10474000FBF77AFD40B1012804D0F61D26F00706DC
:104750000836D7E7361DD5E72846D9E7206ABDE8F1
:10476000F08170B505460C46012A05D02868800600
:1047700000D5EA69002302E0012305E05B1C9342B7
:1047800002D2E05C0028F9D1A869E618C01AA86135
:10479000286A184428622846AFF3008004E0D5E96F
:1047A000012114F8010B9047B442F8D32846AFF327
:1047B000008070BD2DE9F041804600261068752903
:1047C000414615A512D0AFF30080002803DAC0F1EE
:1047D000000012A508E0D8F800108A0701D510A53E
:1047E00002E0490704D50FA5012601E0AFF30080E0
:1047F000002408F1240704E000F0BAF830313955FC
:10480000641C0028F8D133462A4621464046BDE8BC
:10481000F04100F00DB80000000000002D00000085
:104820002B00000020000000704770477047704761
:104830002DE9F0470D4604469246994600F12408BA
:104840000168880604D5E06921F01001216000E0CC
:1048500001200027A84201DDA0EB0507A16907EBB5
:10486000050202EB0300A1EB0000A0612068C00676
:1048700002D42046AFF30080002608E0D4E90121ED
:104880001AF806009047206A401C761C20624E45AC
:10489000F4DB2068C0060AD52046AFF3008006E0AE
:1048A000D4E9012130209047206A401C2062381E44
:1048B000A7F10107F4DC07E0D4E9012118F80500AD
:1048C0009047206A401C2062281EA5F10105F3DCF8
:1048D0002046AFF3008021680220090600D40120A1
:1048E000BDE8F08701694A1C02610878704700B58D
:1048F0008FB0CDE901310021059105497944CDE919
:10490000031011466846FFF7F7FE0FB000BD000028
:10491000E5FFFFFF0A6802F8010B0A60704710B557
:10492000436913B1AFF3008001E0FFF71AFF0120E4
:1049300010BD126800F124010A7000224A700122A1
:10494000EDE711684FF0FF32E9E70000074B70B563
:104950000C467B44FFF7CBFF0546204600F010F8DD
:1049600010B14FF0FF3070BD284670BDF7C9FFFF92
:104970004FF00A01B0FBF1F202FB11011046704743
:10498000C06800F080007047754600F029F8AE4618
:1049900005006946534620F00700854618B020B54B
:1049A000FDF736FDBDE820404FF000064FF0000750
:1049B0004FF000084FF0000B21F00701AC46ACE8C7
:1049C000C009ACE8C009ACE8C009ACE8C0098D4634
:1049D00070470446AFF300802046FBF747FC000019
:1049E00000487047E438002001487047704700BF16
:1049F000E838002090EA010F48BF81F0004100F143
:104A00000C81421A3CBF801A89184FEAD0524FF0ED
:104A10007F4C1CEA410FA2EBD15318BF9CEA026FF6
:104A200000F03B804FF0004C4CEA00204CEA0121A2
:104A300021FA03FC10EB0C0C1ED202F1FF325FEAEC
:104A40001C2040EBC25038BF70471CF07F0F4FEA6C
:104A5000400C18BFBCF17F4F38BF7047C3F1200333
:104A6000994008BF20F00100BCF17F4F38BF70476C
:104A7000A0F1C04000F0C5B84FEA3C00000A40EB8E
:104A8000C25028BF1CF0FF0F4FEA400CE6D018BF01
:104A9000BCF17F4F38BF7047EAE79CEA026F05D050
:104AA00010EA5C0F08BF00F00040704710B500F03E
:104AB0005BF800BF64FBBE3E401058BFC0F14040F1
:104AC000491058BFC1F140418142EFF30080704767
:104AD00010F0004148BF4042B0FA80F310FA03F2F0
:104AE000C3F19D030BD051EAC35101EB12205306D1
:104AF00038BF704700F1010008BF20F00100704787
:104B000050EA010C00F113801CF5000F58BFBCF5F2
:104B1000000F01D48842704707D710F5000F58BF27
:104B200011F5000F15D488427047894270471CF573
:104B3000000F04D5BCF5000FF7D5814270474FF048
:104B4000807C1CEB400F38BF1CEB410F01D281422F
:104B5000704710B500F008F8922449004FF000505B
:104B60004FF08051FFF7A8BF0EF1020E2EF0030E9A
:104B70005EF8044B244204D44FEA4102B2F17F4F65
:104B800011D84FEA4003B3F17F4F0CD80ED14FEA52
:104B9000D07CB2F17F4F0CEB4C0C0CF1020C08BF37
:104BA0004CEBD17C04E04FF0080C01E04FEAD17CE3
:104BB0000CEB4C0324FA03F404F00704B4F1040CE6
:104BC00006D20EEB840CBDE810404CF0010C60479F
:104BD000DFE80CF0070802024FF00040A0F580006B
:104BE00010BD0846420018BFD2F1807288BF00F0A5
:104BF000004010BD10B5FFF7F7FE4FF00001016057
:104C000010BDFF2141EAD050C005704790EA010F66
:104C100048BF81F000413FF5F4AE421A04D882F05B
:104C20000042A0EB020011444FEAD0524FF07F4CFB
:104C30001CEA410FA2EBD15318BF9CEA026F4AD085
:104C40004FF0004C4CEA00204CEA012121FA03FC11
:104C5000B0EB0C0C0FD412F0FE0F36D05FEA4C0014
:104C60001DD5001240EBC25038BF70471CF03F0FFB
:104C700018BF70470BE0A2F101025FEA1C2040EB75
:104C8000C25038BF70471CF07F0F18BF7047C3F188
:104C90002003994014BF401E20F001007047800897
:104CA0004FEA122308BF7047B0FA80FCA2EB0C0257
:104CB000CCF1280C60FA0CF093EA122F04BF00EB41
:104CC000C25070474FEAC3707047130A5FEADC10A6
:104CD00008BF7047F6E79CEA026F04D010EA5C0F49
:104CE00008BF0020704710B5FFF73EFF40DFF63EDB
:104CF00081F000407047000000000000000000004C
:104D00000000000000003F40000000000000000024
:104D10003000400030004000000009000BC03D00A2
:104D20000BC03D00090018C024407FE022403180C4
:104D30000000180024C01B000D8032400180038059
:104D40001C4027401C80074000401000600000000D
:104D50000000000000000000000000001F80204054
:104D600040200000402020401F800000000009007B
:104D700006001F80060009000000040004003F80B8
:104D800004000400000000100060000000000000AB
:104D900000000400040004000400040000000000FF
:104DA00000400000000000000000002001C00600DC
:104DB0003800400000001F802040204020401F801D
:104DC0000000000010403FC000400000000018C07C
:104DD0002140224024401840000010802040244000
:104DE00024401B80000002000D0011003FC0014064
:104DF00000003C80244024402440238000001F8089
:104E0000244024403440038000003000200027C0AC
:104E10003800200000001B802440244024401B80D8
:104E200000001C0022C0224022401F800000000021
:104E300000000840000000000000000000000460C6
:104E4000000000000000000004000A0011002080A3
:104E500040400900090009000900090000000000A5
:104E60004040208011000A00040018002000234068
:104E70002400180000001F802040274029401F40C8
:104E80000000004007C039000F0001C00040204072
:104E90003FC0244024401B8000001F802040204051
:104EA00020403080000020403FC0204020401F8034
:104EB000000020403FC024402E4030C00000204071
:104EC0003FC024402E00300000000F001080204022
:104ED00022403380020020403FC0040004003FC055
:104EE0002040204020403FC0204020400000006083
:104EF000202020203FC02000200020403FC0244030
:104F00000B0030C0204020403FC020400040004007
:104F100000C03FC03C0003C03C003FC00000204038
:104F20003FC00C4023003FC020001F802040204095
:104F300020401F80000020403FC024402400180073
:104F400000001F802140214020E01FA000002040E1
:104F50003FC02440260019C0004018C0244024400F
:104F6000224031800000300020403FC0204030000F
:104F7000000020003F80004000403F8020002000D3
:104F80003E0001C0070038002000380007C03C0088
:104F900007C038000000204039C0060039C020405A
:104FA00000002000384007C038402000000030409A
:104FB00021C02640384020C00000000000007FE0F3
:104FC000402040200000000070000C0003800040E2
:104FD00000000000402040207FE0000000000000B2
:104FE0002000400020000000000000100010001011
:104FF0000010001000100000000040000000000041
:105000000000000002800540054003C00040200071
:105010003FC00440044003800000000003800440BF
:1050200004400640000000000380044024403FC0CC
:1050300000400000038005400540034000000000E0
:1050400004401FC0244024402000000002E005501E
:1050500005500650042020403FC00440040003C017
:1050600000400000044027C0004000000000001085
:105070000010041027E00000000020403FC0014065
:10508000070004C00440204020403FC000400040D2
:10509000000007C0040007C0040003C00000044073
:1050A00007C00440040003C0004000000380044027
:1050B000044003800000041007F004500440038003
:1050C0000000000003800440045007F0001004407A
:1050D00007C0024004000400000000000640054034
:1050E000054004C00000000004001F800440004090
:1050F0000000040007800040044007C00040040096
:10510000070004C0018006000400060001C007007B
:1051100001C006000000044006C0010006C00440B3
:1051200000000410071004E00180060004000000E5
:10513000044005C0064004400000000000000400D8
:105140007BE040200000000000000000FFF00000B5
:105150000000000040207BE0040000000000400050
:1051600080004000200020004000000000000000FF
:10517000000000000000000000000000000000002F
:105180001FCC000C000000000000000008003000F0
:1051900060000800300060000000022003FC1E20B8
:1051A000022003FC1E200220000000000E18110443
:1051B0003FFF10840C78000000000F0010840F38AF
:1051C00000C0077818840078000000780F8410C4AD
:1051D00011240E9800E400840008080068007000A4
:1051E00000000000000000000000000000000000BF
:1051F00007E01818200440020000000040022004CC
:10520000181807E000000000000002400240018082
:105210000FF001800240024000000080008000800A
:105220000FF800800080008000000001000D000EDB
:10523000000000000000000000000000008000806E
:10524000008000800080008000800000000C000CC6
:105250000000000000000000000000000006001830
:1052600000600180060018002000000007F0080818
:1052700010041004080807F00000000008040804E7
:105280001FFC000400040000000000000E0C1014BD
:105290001024104411840E0C000000000C1810049F
:1052A0001104110412880C700000000000E00320BB
:1052B000042408241FFC0024000000001F98108410
:1052C00011041104108810700000000007F0088815
:1052D0001104110418880070000000001C00100068
:1052E00010FC13001C001000000000000E381144D8
:1052F0001084108411440E38000000000700088C50
:1053000010441044088807F000000000000000006E
:10531000030C030C0000000000000000000000016E
:1053200001060000000000000000000000800140B5
:1053300002200410080810040000022002200220AD
:1053400002200220022002200000000010040808B1
:105350000410022001400080000000000E00120036
:10536000100C106C10800F00000003E00C1813E408
:10537000142417C4082807D000000004003C03C40C
:105380001C40074000E4001C000410041FFC110432
:10539000110411040E880070000003E00C181004C2
:1053A0001004100410081C10000010041FFC10044E
:1053B00010041004080807F0000010041FFC11047A
:1053C000110417C410040818000010041FFC110475
:1053D000110017C010000800000003E00C181004B2
:1053E000100410441C780040000010041FFC1084BE
:1053F0000080008010841FFC1004000010041004C2
:105400001FFC100410040000000000030001100144
:1054100010011FFE10001000000010041FFC1104FA
:1054200003801464181C1004000010041FFC1004F6
:10543000000400040004000C000010041FFC1F0006
:1054400000FC1F001FFC1004000010041FFC0C04D3
:10545000030000E010181FFC100007F008081004FB
:1054600010041004080807F0000010041FFC10844A
:105470001080108010800F00000007F00818102422
:105480001024101C080A07F2000010041FFC11046D
:10549000110011C011300E0C000400000E1C11048C
:1054A0001084108410441C380000180010001004F0
:1054B0001FFC100410001800000010001FF810045A
:1054C0000004000410041FF8100010001E0011E07A
:1054D000001C007013801C0010001FC0103C00E076
:1054E0001F0000E0103C1FC000001004180C163410
:1054F00001C001C01634180C100410001C00130465
:1055000000FC13041C00100000000804101C1064B0
:10551000108413041C041018000000000000000098
:105520007FFE4002400240020000000030000C00FC
:1055300003800060001C00030000000040024002E5
:1055400040027FFE0000000000000000000020007C
:105550004000400040002000000000010001000168
:1055600000010001000100010001000040004000B6
:10557000200000000000000000000000009801244E
:1055800001440144014400FC000410001FFC008899
:105590000104010400880070000000000070008811
:1055A000010401040104008800000000007000886C
:1055B0000104010411081FFC0004000000F801446C
:1055C00001440144014400C800000000010401043A
:1055D0000FFC1104110411001800000000D601296D
:1055E0000129012901C90106000010041FFC0084E3
:1055F00001000100010400FC000400000104190482
:1056000019FC000400040000000000000003000179
:105610000101190119FE0000000010041FFC002404
:10562000004001B4010C010400000000100410044B
:105630001FFC0004000400000000010401FC010440
:10564000010001FC0104010000FC010401FC0084D4
:1056500001000100010400FC0004000000F8010446
:1056600001040104010400F80000010101FF0085AC
:105670000104010400880070000000000070008830
:1056800001040104010501FF00010104010401FC02
:1056900000840104010001800000000000CC01240E
:1056A00001240124012401980000000001000100F0
:1056B00007F80104010400000000010001F80004E3
:1056C00000040004010801FC0004010001800170D5
:1056D000000C001001600180010001F0010C00309D
:1056E00001C00030010C01F0010000000104018C38
:1056F00000740170018C010400000101018101713D
:10570000000E001801600180010000000184010CFE
:10571000013401440184010C00000000000000007D
:10572000000001003EFC40024002000000000000BA
:105730000000FFFF000000000000000040024002E7
:105740003EFC01000000000000000000600080003E
:105750008000400040002000200000000000000009
:105760000000000000000000000000000000000039
:105770000000000000000000000000000000000029
:10578000000000000000000000000000000F803852
:105790000FFE380F803800000000000000000000FD
:1057A00000000000000000000100000600000C00E6
:1057B000003800003100000600000C000038000036
:1057C0003000000000000000000061800067F80762
:1057D000F980006180006180006180006180006765
:1057E000F807F98000618000000000000000000060
:1057F00001C0E003E0F00630080418081FFFFE04B3
:105800000E080787F00381E000000000000001F0AF
:1058100000060C00040408060C7001F9C0000E001C
:10582000003BE000EC18070808040C180003E00037
:1058300000000001E00007F003F818041C0804173A
:105840000807E1D003C0E00023B0003C08002008B6
:1058500000001000000000000001000031000032D4
:1058600000001C000000000000000000000000001C
:105870000000000000000000000000000000000028
:10588000000000000000000000007F0001FFC007D2
:1058900080F00C001810000420000200000000003E
:1058A000002000021000040C00180780F001FFC067
:1058B000007F000000000000000000000000000069
:1058C0000000000000004200006600006600003C8E
:1058D0000000180003FFC0001800003C0000660034
:1058E0000066000042000000000008000008000000
:1058F000080000080000080001FFC00008000008C0
:10590000000008000008000008000000000000017E
:1059100000003100003200001C0000000000000008
:105920000000000000000000000000000000000077
:10593000000008000008000008000008000008003F
:10594000000800000800000800000800000800002F
:1059500000000000000000000000380000380000D7
:1059600038000000000000000000000000000000FF
:1059700000000000000000000000000600001C0005
:105980000070000180000E0000380000C000070019
:10599000001C0000300000000000000000007F80BC
:1059A00001FFE003807006001804000804000806E8
:1059B000001803807001FFE0007F800000000000FD
:1059C0000000000001000801000801000803FFF8C2
:1059D00007FFF800000800000800000800000000B1
:1059E000000000000001C03802C058040098040103
:1059F00018040218040418061C1803F81801E0F82B
:105A000000000000000000000001C0E003C0F0043E
:105A1000000804080804080806180803F41801E739
:105A2000F00001E0000000000000000000000300A2
:105A3000000D00001100006100008108030108074B
:105A4000FFF80FFFF8000108000108000000000047
:105A5000000000E007FCD006080806100806100841
:105A6000061008061838060FF00607C000000000F0
:105A70000000000000003F8001FFE00384300208C6
:105A800018041008041008041008071810030FF079
:105A90000007C000000000000000000003C0000775
:105AA00000000600000600F80607F806180006E0E9
:105AB0000007000006000000000000000001E1E017
:105AC00003F7F0063410041808041808040C08043E
:105AD0000C0806161803F3F001C1E00000000000F6
